:020000040040BA
:10000000E8244020E1054000DD054000DD0540001A
:10001000DD054000DD054000DD054000000000007A
:10002000000000000000000000000000DD054000AE
:10003000DD05400000000000DD054000DD0540005A
:10004000DD054000DD054000DD054000DD05400028
:10005000DD054000DD054000DD054000DD05400018
:10006000DD05400000000000390440004D04400060
:1000700061044000DD054000DD054000DD05400075
:100080007504400089044000DD054000DD054000A6
:10009000DD054000DD054000DD054000DD054000D8
:1000A000DD054000DD054000DD054000DD054000C8
:1000B000DD054000DD054000DD054000DD054000B8
:1000C000DD054000DD054000DD054000DD054000A8
:1000D000DD054000DD054000DD054000DD05400098
:1000E000DD054000DD054000DD054000DD05400088
:1000F000DD054000DD054000DD054000DD05400078
:10010000DD054000DD054000DD054000DD05400067
:10011000DD054000DD05400000000000000000009B
:10012000DD054000DD054000DD054000DD05400047
:10013000DD054000DD054000DD054000DD05400037
:10014000DD054000DD054000DD054000DD05400027
:10015000DD054000DD054000DD054000DD05400017
:10016000DD054000DD05400010B5054C237833B9AE
:10017000044B13B10448AFF300800123237010BD7A
:100180003404402000000000200A40000C4B43B122
:100190000C480D4910B5AFF300800C48036823B933
:1001A00010BD0A48036833B97047094B002BF7D0DC
:1001B000BDE810401847064B002BF5D0184700BF8C
:1001C00000000000200A400038044020200A4000BF
:1001D0000000000010B51048104B98473E21002049
:1001E0000F4B98470F4CA0470028FCD00E4B984768
:1001F0000E4A0F4B9A620F4CA0470028FCD00220F9
:100200000D4B984700200D4B98470D4B98470248DF
:10021000024B984710BD00BF80D1F008B5074000E1
:10022000390540008D0540009D054000013F182024
:1002300000060E40AD0540009D044000D50440007E
:10024000A9064000F8B54FF400425C4B5A60BFF37A
:100250004F8FBFF36F8F5A4B0021C3F85012BFF37B
:100260004F8FBFF36F8F5A6942F400325A61BFF368
:100270004F8FBFF36F8FC3F88410BFF34F8FD3F846
:100280008070C7F34E35C7F3C9076E014FEA877C0C
:1002900043F6E07E1C4606EA0E0062463B4640EA14
:1002A0000201C4F86012013B02F14042B3F1FF3F8A
:1002B000F5D1013D203EB5F1FF3FECD1BFF34F8FAB
:1002C0003F4B5A6942F480325A61BFF34F8FBFF3FC
:1002D0006F8F3C4A3C495160A1F580715160BFF37A
:1002E0004F8FBFF36F8FD3F8902222F00102C3F833
:1002F0009022D3F8942222F00102C3F89422BFF393
:100300004F8FBFF36F8F0A20304CA0470B20A047C0
:100310000C20A0471020A0471120A0472C4B4FF4E1
:1003200000021A61C3F8A0201A632A494FF4007230
:100330000A61C1F8A0200A635A61C3F8A0205A6676
:10034000C3F890205A651A62C3F88420196F21F40B
:1003500000711967596F21F400715967C3F8C02003
:10036000C3F8D420C3F8B0204FF400121A66C3F8C3
:1003700090205A655A62C3F88020196F21F4001149
:100380001967596F21F4001159675A60124AD2F85F
:10039000143143F01003C2F81431104B10221A66C6
:1003A000C3F890205A655A62C3F88020196F114330
:1003B0001967596F114359675A60F8BD50180E40BC
:1003C00000ED00E0000C0E400C08005ABD05400096
:1003D000000E0E4000120E400080084000100E403B
:1003E000C06C7047806C70472DE9F0410446884628
:1003F0000E4B9847054620460D4B9847054013D0B5
:100400000C4C04F1600603E0B4420DD010345DB131
:1004100020684045F8D161682942F5D0E3689847E3
:10042000636825EA0305EFE7BDE8F081E1034000DA
:10043000E50340005004402008B50A210148024B62
:10044000984708BD000E0E40E903400008B50B2197
:100450000148024B984708BD00100E40E9034000D8
:1004600008B50C210148024B984708BD00120E4008
:10047000E903400008B510210148024B984708BD28
:1004800000140E40E903400008B511210148024B59
:10049000984708BD00160E40E9034000032811D01C
:1004A000042812D002280CBF4FF480710021084AA2
:1004B000136B23F440730B431363936E13F0080F15
:1004C000FBD070474FF44071F1E74FF40071EEE755
:1004D00000060E40174A136B23F070031843106395
:1004E000936E13F0080F0AD14FF4006311498A6E1E
:1004F00012F0080F03D1013BF9D1012070470D4ADA
:10050000136B23F0030343F002031363936E13F0A2
:10051000080F0AD14FF4006306498A6E12F0080FE3
:1005200005D1013BF9D10120704700207047002020
:10053000704700BF00060E40A0B90E48036A0902CA
:1005400089B20D4A1A400D4B13431943016202460A
:10055000936E13F0010FFBD0064A116A084B0B4350
:100560001362704703490B6A064A1A40064B13434D
:100570000B62704700060E40FCFFC8FF0100370009
:1005800000003701FCFFC8FE02003701024B986EE5
:1005900000F48030704700BF00060E404FF000525C
:1005A000014B9A62704700BF00060E40024B986EE6
:1005B00000F00200704700BF00060E4000F07F0010
:1005C000054BC3F80C01D3F80C2142F01022C3F8FC
:1005D0000C210020704700BF00060E40FEE700001F
:1005E00000B583B0254B264A9A4210D0254B234AAA
:1005F0009A420CD2013B9B1A23F0030304331344A9
:100600001F4951F8040B42F8040B9A42F9D11E4BD2
:100610001E4A9A420AD2013B9B1A23F00303043379
:100620001344002142F8041B9342FBD1184A194B92
:1006300023F07F039360EFF31083B3FA83F35B0936
:10064000019372B6BFF35F8F0022134B1A700199AA
:10065000124A136843F470031360BFF34F8FBFF364
:100660006F8F29B101220C4B1A70BFF35F8F62B6F6
:100670000B4B98470B4B9847FEE700BF000040200C
:10068000200A400034044020E40440203404402088
:1006900000ED00E0000040000000402088ED00E098
:1006A00089084000410840003B4B1B6B03F00303EB
:1006B000012B1DD083B1022B36D0374B1B6B03F0BF
:1006C0007003702B5FD0344B1A6B3449C2F30212A3
:1006D0000B68D3400B607047314B5B6913F0800FA0
:1006E00014BF4FF400424FF4FA422C4B1A60E4E777
:1006F000294B1B6A13F0807F03D02A4A274B1A60CC
:10070000DBE7294A254B1A60234B1B6A03F0700371
:10071000102B05D0202BD0D1224A204B1A60CCE7D9
:10072000224A1E4B1A60C8E71B4B1B6A13F0807FDE
:1007300016D01C4A194B1A60174B1B6B03F00303AE
:10074000022BBAD1144A916A926A1448C1F30A4141
:10075000036801FB0333D2B2B3FBF2F30360ACE7EF
:10076000114A0E4B1A600C4B1B6A03F07003102BDE
:1007700005D0202BE0D10B4A084B1A60DCE70B4A6E
:10078000064B1A60D8E7054A13680949A1FB031311
:100790005B081360704700BF00060E400400402055
:1007A00010180E40001BB70000093D0000127A002F
:1007B000ABAAAAAA164B984213D9164B984215D940
:1007C000154B984216D9154B984217D9144B98429D
:1007D00018D9144B984294BF134A144A144B1A6008
:1007E00070474FF08062124B1A607047114A104BED
:1007F0001A607047104A0E4B1A6070470F4A0C4B34
:100800001A6070474FF00422094B1A60704700BF0E
:10081000BFF35E017FE7BD023FDB1C04FFCE7B051B
:10082000BFC2DA067FB639080005000400060004DE
:10083000000C0E400001000400020004000300044C
:1008400008B50D4B98470D4B98470A200C4CA04714
:100850000B20A0470C20A0471020A0471120A04744
:10086000084B04211961C3F8A01008221A61C3F8CB
:10087000A02019635A63FEE7D501400045024000FD
:10088000BD05400000100E4070B50F4E0F4D761B99
:10089000B61018BF002405D0013455F8043B984722
:1008A000A642F9D10A4E0B4D761B00F0A7F8B61000
:1008B00018BF002406D0013455F8043B9847A642DF
:1008C000F9D170BD70BD00BF080A4000080A4000A1
:1008D000100A4000080A4000024B13B1024800F021
:1008E00005B8704700000000F908400000230146E9
:1008F0001A46184600F01EB838B50A4C0A4D641B5B
:10090000A4100AD004F18043013B05EB8305013CB0
:1009100055F804399847002CF9D1BDE8384000F06B
:1009200077B800BF200A40001C0A4000704700BF93
:10093000704700BF2DE9F8432C4D064628689846BD
:100940000F469146FFF7F2FF294B1C68D4F8483157
:10095000002B3ED05A681F2A1CDC02F1010E76B132
:1009600003EB82010124C1F88890D3F888019440F8
:100970002043022EC3F88801C1F8088123D0023237
:10098000C3F804E0286843F82270FFF7D1FF002085
:10099000BDE8F883174B0BB34FF4C870AFF300807A
:1009A0000346D8B1D4F848210260002141600A46CC
:1009B000C4F848014FF0010EC0F88811C0F88C113E
:1009C000002EDCD0CCE7D3F88C110C43C3F88C415B
:1009D000D5E704F5A673C4F84831BBE72868FFF7EC
:1009E000A7FF4FF0FF30BDE8F88300BF3004402080
:1009F000F80940000000000008004020F8B500BFE2
:100A0000F8BC08BC9E467047D90840008D014000E4
:100A1000F8B500BFF8BC08BC9E46704769014000AD
:100A20000100000000093D0000000000F402402029
:100A30005C034020C40340200000000000000000D0
:100A400000000000000000000000000000000000A6
:100A50000000000000000000000000000000000096
:100A60000000000000000000000000000000000086
:100A70000000000000000000000000000000000076
:100A80000000000000000000000000000000000066
:100A90000000000000000000000000000000000056
:100AA0000000000000000000000000000000000046
:100AB0000000000000000000000000000000000036
:100AC0000000000000000000000000000000000026
:100AD00001000000000000000E33CDAB34126DE6C3
:100AE000ECDE05000B00000000000000000000002C
:100AF00000000000000000000000000000000000F6
:100B000000000000000000000000000000000000E5
:100B100000000000000000000000000000000000D5
:100B200000000000000000000000000000000000C5
:040E5000C00440207A
:04000005004005E1D1
:00000001FF
