:020000040040BA
:10000000002B4020110D40000F0D40000F0D40004F
:100010000F0D40000F0D40000F0D400000000000CC
:100020000000000000000000000000000F0D400074
:100030000F0D4000000000000F0D40000F0D4000AC
:100040000F0D40000F0D40000F0D40000F0D400040
:100050000F0D40000F0D40000F0D40000F0D400030
:100060000F0D400000000000150A4000290A400062
:100070003D0A40000F0D40000F0D40000F0D4000E5
:10008000510A4000650A40000F0D40000F0D40006E
:100090000F0D40000F0D40000F0D40000F0D4000F0
:1000A0000F0D40000F0D40000F0D40000F0D4000E0
:1000B0000F0D40000F0D40000F0D40000F0D4000D0
:1000C0000F0D40000F0D40000F0D40000F0D4000C0
:1000D0000F0D40000F0D40000F0D40000F0D4000B0
:1000E0000F0D40000F0D40000F0D40000F0D4000A0
:1000F0000F0D40000F0D40000F0D40000F0D400090
:100100000F0D40000F0D40000F0D40000F0D40007F
:100110000F0D40000F0D4000000000000000000027
:100120006D0940000F0D40000F0D40000F0D400005
:100130000F0D40000F0D40000F0D40000F0D40004F
:100140000F0D40000F0D40000F0D40000F0D40003F
:100150000F0D40000F0D40000F0D40000F0D40002F
:100160000F0D40000F0D400010B5054C237833B93A
:10017000044B13B10448AFF300800123237010BD7A
:10018000C809402000000000345840000C4B43B127
:100190000C480D4910B5AFF300800C48036823B933
:1001A00010BD0A48036833B97047094B002BF7D0DC
:1001B000BDE810401847064B002BF5D0184700BF8C
:1001C0000000000034584000CC0940203458400062
:1001D00000000000F0B583B005460C4600230193F3
:1001E0002A4B984213D02A4B984218D0294B984258
:1001F0001DD0294B9D4222D0284B9D4227D0284B11
:100200009D422ED0274B9D4235D003B0F0BD1F46F6
:10021000254E21463846B0470028FAD1E9E71F4667
:10022000214E21463846B0470028FAD1E4E71F4660
:100230001D4E21463846B0470028FAD1DFE71F4659
:10024000194E21463846B0470028FAD1DAE71E4653
:10025000164D01A93046A8470028FAD1019B23700A
:10026000D3E71E46114D01A93046A8470028FAD110
:10027000019B2370C9E71E460C4D01A93046A847D3
:100280000028FAD1019B2370BFE700BF00080E4091
:10029000000A0E40001A0E40001C0E4000400240B2
:1002A0000080024000C00240EB0B4000F70C400011
:1002B00070B50C462A4B984213D02A4B984219D05D
:1002C000294B98421FD0294B984225D0284B984261
:1002D0002BD0284B984231D0274B984237D0002062
:1002E00070BD1E46254D21463046A8470028FAD14C
:1002F000012070BD1E46214D21463046A8470028EA
:10030000FAD1012070BD1E461C4D21463046A8473B
:100310000028FAD1012070BD1E46184D21463046F6
:10032000A8470028FAD1012070BD1E46144D214671
:100330003046A8470028FAD1012070BD1E46104D56
:1003400021463046A8470028FAD1012070BD1E463C
:100350000B4D21463046A8470028FAD1012070BD38
:1003600000080E40000A0E40001A0E40001C0E400D
:10037000004002400080024000C00240D90B400013
:10038000E10C400070B586B0164D174B1D60174A42
:10039000174B1A60174A184B1A604FF4E133009359
:1003A000C02301934FF40063029300240394049448
:1003B0000E20124B9847124A69462846114B98471F
:1003C0002846114B98472846104B9847104E3368E3
:1003D000214698680F4DA847336821465868A847BA
:1003E00006B070BD00800240C80A4020B102400043
:1003F000C40A4020D5014000C00A4020990B4000AB
:1004000080D1F008810C4000D50C4000DB0C40008E
:1004100018004020FD10400010B584B001A80B4B1F
:10042000984701238DF8043000238DF805308DF8AE
:1004300007308DF80630064C01A92046054B984739
:1004400005492046054B984704B010BD6908400097
:1004500000C00640D50840000000402005094000CB
:1004600010B5064C06492046064B984701232360E9
:1004700005492046054B984710BD00BF00C0064007
:10048000040A402039094000F40940205509400081
:1004900010B5064C06492046064B984701232360B9
:1004A00005492046054B984710BD00BF00C00640D7
:1004B000F409402039094000E40940205509400072
:1004C00031B32DE9F0478846044681464718114E5E
:1004D000114DDFF84CA003E01048A847BC420ED0F5
:1004E00014F8011B3046A847A4EB090313F00F0FC3
:1004F000F2D013F0030FF1D15046A847EEE718F001
:100500000F0F01D1BDE8F0870448034B9847F9E786
:10051000704700BF6C5640001110400074564000F8
:100520007856400070B5174B9847174B9847174BB4
:100530009847174B9847174E174C184D0CE0184B1F
:1005400098471848A04710211748184B9847184B50
:10055000984718491848A0473046A04729461748E9
:10056000174B984729461748A0472846164B9847E7
:100570000F28E4D8C0F1100200212844134B9847FB
:10058000DDE700BFD1054000CD06400085034000F7
:1005900019044000FC55400011104000040A40209E
:1005A0006104400044564000F4094020C10440006A
:1005B00091044000E409402058564000285640006D
:1005C0003910400030564000C11240006110400018
:1005D00010B51048104B98473E2100200F4B98470C
:1005E0000F4CA0470028FCD00E4B98470E4A0F4BEB
:1005F0009A620F4CA0470028FCD002200D4B984770
:1006000000200D4B98470D4B98470248024B9847E6
:1006100010BD00BF80D1F008E50E4000150B400072
:10062000690B4000790B4000013F182000060E4086
:10063000890B4000790A4000B10A4000D90D400002
:100640002DE9F04180B90C469046002A0FDD8F1845
:10065000084E094D306821462B6898470134BC424A
:10066000F8D14046BDE8F0814FF0FF38F9E7804609
:10067000F7E700BFC80A4020C00A4020013802281E
:1006800015D82DE9F0410E4614469AB10D46DFF813
:1006900038800C4FD8F8000015F8011B3B689847CC
:1006A00000280ADBA81B013CF4D1BDE8F0814FF023
:1006B000FF3070471046BDE8F0814FF0FF30BDE8D5
:1006C000F08100BFC40A4020C80A4020F8B54FF4AA
:1006D00000425C4B5A60BFF34F8FBFF36F8F5A4B92
:1006E0000021C3F85012BFF34F8FBFF36F8F5A69C9
:1006F00042F400325A61BFF34F8FBFF36F8FC3F8DC
:100700008410BFF34F8FD3F88070C7F34E35C7F313
:10071000C9076E014FEA877C43F6E07E1C4606EA75
:100720000E0062463B4640EA0201C4F86012013BFB
:1007300002F14042B3F1FF3FF5D1013D203EB5F15A
:10074000FF3FECD1BFF34F8F3F4B5A6942F48032E9
:100750005A61BFF34F8FBFF36F8F3C4A3C495160E2
:10076000A1F580715160BFF34F8FBFF36F8FD3F846
:10077000902222F00102C3F89022D3F8942222F0B2
:100780000102C3F89422BFF34F8FBFF36F8F0A208B
:10079000304CA0470B20A0470C20A0471020A047BA
:1007A0001120A0472C4B4FF400021A61C3F8A0207F
:1007B0001A632A494FF400720A61C1F8A0200A6343
:1007C0005A61C3F8A0205A66C3F890205A651A628D
:1007D000C3F88420196F21F400711967596F21F44F
:1007E00000715967C3F8C020C3F8D420C3F8B02003
:1007F0004FF400121A66C3F890205A655A62C3F883
:100800008020196F21F400111967596F21F400112C
:1008100059675A60124AD2F8143143F01003C2F8F3
:100820001431104B10221A66C3F890205A655A6290
:10083000C3F88020196F11431967596F1143596725
:100840005A60F8BD50180E4000ED00E0000C0E405C
:100850000C08005A990B4000000E0E4000120E408A
:100860000080084000100E400123037000234370F5
:100870008370C3700371437183718360704770B478
:100880000B781C1C18BF01248A78022A08BF44F088
:100890000804CD784E78130243EA862343EA0533F1
:1008A0000A7943EA024323434A790AB143F40043F5
:1008B000052D08D08A681201D2B242F460021343B7
:1008C000436070BC70478A79002AF3D043F002037A
:1008D000F0E7000038B504460D463820064B98472F
:1008E0004FF48073236029462046044B98473820F4
:1008F000034B984738BD00BF990B40007F0840006C
:10090000B90B400030B44368C3F38123012B04D0FA
:1009100083B1022B0CD1082500E00625002351F8F5
:10092000044B03F1080240F822400133AB42F6D3F6
:1009300030BC70470425F1E710B4002351F8044B94
:1009400003F1100240F822400133042BF6D15DF888
:10095000044B7047002303F1140250F8222041F8A1
:10096000042B0133042BF6D17047000038B5114B2E
:10097000DC699D6914F0010F06D015F0010F03D05A
:100980000D4B1B6803B1984714F4807F06D015F413
:10099000807F03D0084B5B6803B1984714F4803F15
:1009A00006D015F4803F03D0034B9B6803B19847F2
:1009B00038BD00BF00C00640CC0A4020C06C704764
:1009C000806C70472DE9F041044688460E4B9847ED
:1009D000054620460D4B9847054013D00C4C04F1BA
:1009E000600603E0B4420DD010345DB1206840458C
:1009F000F8D161682942F5D0E3689847636825EA31
:100A00000305EFE7BDE8F081BD094000C1094000E2
:100A1000140A402008B50A210148024B984708BD36
:100A2000000E0E40C509400008B50B210148024BDD
:100A3000984708BD00100E40C509400008B50C21BC
:100A40000148024B984708BD00120E40C5094000FE
:100A500008B510210148024B984708BD00140E400C
:100A6000C509400008B511210148024B984708BD4F
:100A700000160E40C5094000032811D0042812D0EA
:100A800002280CBF4FF480710021084A136B23F435
:100A900040730B431363936E13F0080FFBD0704742
:100AA0004FF44071F1E74FF40071EEE700060E409D
:100AB000174A136B23F0700318431063936E13F0FF
:100AC000080F0AD14FF4006311498A6E12F0080F23
:100AD00003D1013BF9D1012070470D4A136B23F07C
:100AE000030343F002031363936E13F0080F0AD15C
:100AF0004FF4006306498A6E12F0080F05D1013BDE
:100B0000F9D101207047002070470020704700BFD6
:100B100000060E40A0B90E48036A090289B20D4AC8
:100B20001A400D4B1343194301620246936E13F0B2
:100B3000010FFBD0064A116A084B0B431362704742
:100B400003490B6A064A1A40064B13430B6270476F
:100B500000060E40FCFFC8FF01003700000037010F
:100B6000FCFFC8FE02003701024B986E00F4803093
:100B7000704700BF00060E404FF00052014B9A62D2
:100B8000704700BF00060E40024B986E00F0020056
:100B9000704700BF00060E4000F07F00054BC3F811
:100BA0000C01D3F80C2142F01022C3F80C210020D4
:100BB000704700BF00060E4000F07F00054BC3F8F1
:100BC0000C01D3F80C2142F48052C3F80C21002010
:100BD000704700BF00060E40436913F0020F02D0B9
:100BE000C1610020704701207047436913F0010F75
:100BF00003D083690B70002070470120704710B448
:100C00000B01934214D9C9004B0803EBC202B2FB9B
:100C1000F1F2D3085C1E4FF6FE718C4201D901201F
:100C200017E0416841F4002141600CE0012010E030
:100C3000590801EBC202B2FBF3F2D3085C1E4FF677
:100C4000FE718C42F2D8120402F4E0221A430262CE
:100C500000205DF8044B7047084BC0F8E4300023D7
:100C600043604362836288230360242303604FF45C
:100C7000807303604FF400230360704700415355B5
:100C800070B505460C4616460F4B984700220F4B91
:100C90001A60A4B13246216828460D4B9847024697
:100CA00078B96368A1680B4321690B43E1680B4382
:100CB00006490B6069680B436B60104670BD0122EA
:100CC000FBE70122F9E700BF590C4000840A4020ED
:100CD000FF0B400040230360704710230360704700
:100CE000436913F0020F04D0C1F30801C161002071
:100CF000704701207047436913F0010F05D08369E5
:100D0000C3F308030B600020704701207047FEE723
:100D100000B583B0254B264A9A4210D0254B234A72
:100D20009A420CD2013B9B1A23F003030433134471
:100D30001F4951F8040B42F8040B9A42F9D11E4B9B
:100D40001E4A9A420AD2013B9B1A23F00303043342
:100D50001344002142F8041B9342FBD1184A194B5B
:100D600023F07F039360EFF31083B3FA83F35B09FF
:100D7000019372B6BFF35F8F0022134B1A70019973
:100D8000124A136843F470031360BFF34F8FBFF32D
:100D90006F8F29B101220C4B1A70BFF35F8F62B6BF
:100DA0000B4B98470B4B9847FEE700BF00004020D5
:100DB00034584000C8094020000B4020C80940209A
:100DC00000ED00E0000040001000402088ED00E051
:100DD000C10F4000250540003B4B1B6B03F0030394
:100DE000012B1DD083B1022B36D0374B1B6B03F088
:100DF0007003702B5FD0344B1A6B3449C2F302126C
:100E00000B68D3400B607047314B5B6913F0800F68
:100E100014BF4FF400424FF4FA422C4B1A60E4E73F
:100E2000294B1B6A13F0807F03D02A4A274B1A6094
:100E3000DBE7294A254B1A60234B1B6A03F070033A
:100E4000102B05D0202BD0D1224A204B1A60CCE7A2
:100E5000224A1E4B1A60C8E71B4B1B6A13F0807FA7
:100E600016D01C4A194B1A60174B1B6B03F0030377
:100E7000022BBAD1144A916A926A1448C1F30A410A
:100E8000036801FB0333D2B2B3FBF2F30360ACE7B8
:100E9000114A0E4B1A600C4B1B6A03F07003102BA7
:100EA00005D0202BE0D10B4A084B1A60DCE70B4A37
:100EB000064B1A60D8E7054A13680949A1FB0313DA
:100EC0005B081360704700BF00060E40140040200E
:100ED00010180E40001BB70000093D0000127A00F8
:100EE000ABAAAAAA164B984213D9164B984215D909
:100EF000154B984216D9154B984217D9144B984266
:100F000018D9144B984294BF134A144A144B1A60D0
:100F100070474FF08062124B1A607047114A104BB5
:100F20001A607047104A0E4B1A6070470F4A0C4BFC
:100F30001A6070474FF00422094B1A60704700BFD7
:100F4000BFF35E017FE7BD023FDB1C04FFCE7B05E4
:100F5000BFC2DA067FB639080005000400060004A7
:100F6000000C0E4000010004000200040003000415
:100F70000A4B1B6853B1094B1B681A180849914268
:100F800008DB1046054A106018467047054A034BB7
:100F90001A60F0E74FF0FF30704700BF880A40202A
:100FA000FCFF4520002D40204FF0FF3070474FF4EC
:100FB00000534B60002070470120704700207047AD
:100FC00070B50F4E0F4D761BB61018BF002405D01C
:100FD000013455F8043B9847A642F9D10A4E0B4D0F
:100FE000761B04F011FCB61018BF002406D00134A3
:100FF00055F8043B9847A642F9D170BD70BD00BFBB
:1010000014584000145840001C5840001458400028
:101010000FB400B5074983B004AB086853F8042B3C
:101020008168019300F0FAF903B05DF804EB04B0B5
:10103000704700BF180040200FB400B5074983B0C7
:1010400004AB086853F8042B4168019301F070F871
:1010500003B05DF804EB04B0704700BF18004020F7
:1010600070B4860746D0541E002A41D0CAB2034647
:1010700002E014F1FF343BD303F8012B9D07F8D1B4
:10108000032C2ED9CDB245EA05250F2C45EA05459E
:1010900019D903F110022646103E0F2E42F8105CBB
:1010A00042F80C5C42F8085C42F8045C02F1100261
:1010B000F2D8A4F1100222F00F0204F00F04103253
:1010C000032C13440DD91E462246043A032A46F83F
:1010D000045BFAD8221F22F003020432134404F006
:1010E00003042CB1C9B21C4403F8011B9C42FBD180
:1010F00070BC704714460346C2E700BF00290CBF0E
:10110000022200224FF4806300F000B82DE9F04382
:10111000614C256883B004460F4690461E4615B1C3
:10112000AB6B002B64D0B8F1020F06D0B8F1010F01
:1011300000F29F80002EC0F29C80636ED80734D5E9
:101140002146284601F012FE216B41B104F1400313
:10115000994202D0284602F07BF800232363B4F9B9
:101160000C300022A26162601A063AD423F44A636A
:1011700023F00303B8F1020FA3811DD001AB6A462F
:101180002146284602F048FBA3891843A081002E7F
:1011900032D1009E304602F0B7FB074600286BD0E4
:1011A000A38943F08003A38128E0A3899905C7D4CC
:1011B000A06D02F02DFBC3E70025616E002604F14F
:1011C000430243F002030120A660CE07A381226000
:1011D0002261606101D498053ED5284603B0BDE880
:1011E000F0832169284602F033F8B4F90C30BDE7EA
:1011F000284601F025FE96E7002FCBD0AB6B002BE5
:1012000033D0009BB4F90C2027609E421CBF42F4EF
:101210000062A281B8F1010F04BF42F00102A28175
:1012200092B212F00803276166610ED0D1071AD579
:10123000656E7642002315F00105A661A36009D012
:101240000025284603B0BDE8F083A360656E15F065
:101250000105F5D19305C0D4A06D02F0DBFA284654
:1012600003B0BDE8F083A660F0E7284601F0E8FD92
:10127000C7E74FF0FF35B0E7DDF80090B14504D087
:10128000484602F041FB074620B9B4F90C304FF054
:10129000FF3592E74E4683E718004020000000002B
:1012A000000000000000000000000000000000003E
:1012B000000000000000000000000000000000002E
:1012C00090F800F06DE9024520F007016FF0000C86
:1012D00010F0070491F820F040F049804FF000042E
:1012E0006FF00700D1E9002391F840F000F1080009
:1012F00082FA4CF2A4FA8CF283FA4CF3A2FA8CF341
:101300004BBBD1E9022382FA4CF200F10800A4FAA7
:101310008CF283FA4CF3A2FA8CF3E3B9D1E90423FB
:1013200082FA4CF200F10800A4FA8CF283FA4CF332
:10133000A2FA8CF37BB9D1E9062301F1200182FAEC
:101340004CF200F10800A4FA8CF283FA4CF3A2FAF2
:101350008CF3002BC6D0002A04BF04301A4612BA00
:10136000B2FA82F2FDE8024500EBD2007047D1E903
:10137000002304F00305C4F100004FEAC50514F092
:10138000040F91F840F00CFA05F562EA05021CBF63
:1013900063EA050362464FF00004A9E72DE9F84F20
:1013A0004B6E9C0493462FD59368126853B30E4638
:1013B000074602F1080919E920045FEA9A0817D0E4
:1013C000043D002401E0A04510D0324655F8041F2A
:1013D000384601F0D7FD431C04F10104F3D100238A
:1013E000CBF80830CBF80430BDE8F88FDBF80830D4
:1013F0002AF0030AA3EB0A03CBF8083009F1080925
:10140000002BD8D10020EAE702F008F80023CBF83F
:101410000830CBF80430BDE8F88F00BF2DE9F04F5D
:10142000ADB01D468B4690460793069018B1836B6E
:10143000002B00F0F380DBF86430BBF90C00DF0711
:1014400081B202D48E0540F1FC808C040AD4DBF812
:10145000643040F4005123F40053ABF80C10CBF887
:10146000643089B2080740F1B380DBF81030002BFC
:1014700000F0AE8001F01A030A2B00F0B5800023C3
:101480000DF170090B93119310930393CDF83C90D9
:10149000CA46CDF810B098F800304446FBB1252B71
:1014A00002D11CE0252B03D014F8013F002BF9D109
:1014B000A4EB08059DB1109B119ACAF80080013376
:1014C0002A44072BCAF80450119210937ADD002A9F
:1014D00040F0B084039B10922B44CA4603932378B8
:1014E000002B00F0E08300204FF000038DF8373030
:1014F00004F1010862780546064603464FF0FF34C2
:1015000008F10108A2F12001582900F2DE82DFE88B
:1015100011F02102DC02DC022902DC02DC02DC0226
:10152000DC02DC02DC0289029502DC02A200BD02C0
:10153000DC029F01A401A401A401A401A401A4014F
:10154000A401A401A401DC02DC02DC02DC02DC0256
:10155000DC02DC02DC02DC02DC02B201DC02DC02C6
:10156000DC02DC02DC02DC02DC02DC02DC02DC028B
:101570009701DC02DC02DC02DC02DC029B01DC0203
:10158000DC025302DC02DC02DC02DC02DC02DC02F4
:10159000DC02DC02DC02DC025A021B02DC02DC029E
:1015A000DC026E021B02DC02DC027302DC02F501CB
:1015B00082010902D702DC029A02DC02A700DC02E7
:1015C000DC022E020AF1080A039B2B44039386E7F0
:1015D0005946069801F0B6FA18BBBBF80C1001F09A
:1015E0001A030A2B7FF44BAFBBF90E30002BFFF62A
:1015F00046AFDBF86430DB0705D48F0503D4DBF896
:10160000580002F007F92B4642465946069800F06A
:101610004DFD039003982DB0BDE8F08F01F010FC54
:1016200009E7DBF86430D90704D4BBF80C309A051D
:1016300040F1AA844FF0FF33039303982DB0BDE827
:10164000F08FDBF8580002F0E3F8BBF90C0081B230
:10165000FBE67642079243F0040398F800204FE738
:1016600008969E0600F150840799DD060A4600F1AF
:10167000EF83580640F1EC830E88043100270122E5
:1016800007914FF000018DF837100025611C00F024
:10169000168123F08001029156EA070140F014817F
:1016A000002C40F05C83002A40F0B78313F0010364
:1016B000059300F057840DF1B00B30230BF8413D3A
:1016C000059BA342B8BF234601930DB1013301939B
:1016D000029B13F00203099302D0019B0233019392
:1016E000029B13F084030A9340F01782089B019A2F
:1016F0009D1A002D40F31182102D40F39084109B11
:10170000119AC44ED6461027A2461946069C07E0F9
:1017100001F1020C0EF1080E0146103D102D11DDF5
:10172000481C1032072811928EE8C0001090EFDD9F
:10173000002A40F0E481103D102D11464FF0010CBD
:10174000CE46EDDC54466146F2462A440729119202
:10175000CAF80060CAF80450109100F3EC829DF8BA
:1017600037500AF1080A481C002D40F0DE81099B21
:10177000002B00F0F88102320EA9022307281192F3
:1017800010908AE80A0040F3EA81002A40F08C8336
:101790000A9B802B4FF001001146CA4640F0E781BA
:1017A000089B019D5E1B002E40F3E181102E9A4D97
:1017B00040F35084D4461027A246069C07E001F16E
:1017C000020E0CF1080C0146103E102E11DD481CD3
:1017D0001032072811928CE8A0001090EFDD002A4B
:1017E00040F09D82103E102E4FF0010E1146CC4667
:1017F000EDDC5446E2463244BEF1070F11928AE80E
:101800006000CDF840E000F369830AF1080A0EF1A8
:1018100001007146ABE1089613F0200240F08C8382
:1018200013F0100140F01A8313F0400200F0168309
:1018300007980A460146043106880791002720E7E9
:10184000089643F01003E7E7089643F0100308E713
:1018500043F0800398F8002052E6A2F13001002600
:1018600018F8012B06EB860601EB4606A2F13001C3
:101870000929F5D946E60896002840F0088443F087
:1018800010039E0600F14C83DD0600F1F38258063A
:1018900040F1F082079DB5F900602A46F71704323F
:1018A000304639460792002871F10002C0F25D838C
:1018B000611C9DF837504FF001027FF4EAAE56EA02
:1018C000070100F04D820293012A00F08C82022A67
:1018D00040F05C820B98CB46330906F00F0143EAD7
:1018E00007733A091E461746435C0BF8013D56EA5A
:1018F0000703F1D1A9EB0B030593E1E6002840F0C3
:10190000C083990600F16783DA0600F1F1805B0677
:1019100040F1EE80079A136804320792BDF80C205C
:101920001A80B8E507983D4A08960B920668782217
:10193000302104308DF8392043F00203079000274E
:101940008DF8381002229CE60896002899D08DF870
:10195000375096E798F80020002D7FF4D1AD012094
:101960002025CDE543F0010398F80020C8E508964E
:10197000002840F0938329490B919F0600F1E882EB
:101980000798DE06014600F170825D0640F16D8227
:101990000431068807910027D80740F1228256EAD1
:1019A000070100F01E8230218DF8392043F0020338
:1019B0008DF83810022264E60896002840F06B8308
:1019C00017490B91D9E7079908960A688DF84820BE
:1019D0004FF000000A468DF83700043201200190D4
:1019E000079205900DF1480B0293002470E643F036
:1019F000400398F8002083E598F800206C2A03BF84
:101A000098F8012043F0200308F1010843F0100387
:101A100076E500BFB0564000C056400094564000E6
:101A20008056400007990E680A46002E02F1040213
:101A3000FFF60FAE079298F8002061E598F80020B5
:101A400001202B255CE507990896D1F800B04FF0EE
:101A500000028DF837200E1DBBF1000F00F0E5826B
:101A6000671C00F0C482224600215846019302F010
:101A700047FA019B002800F0E582A0EB0B020592DB
:101A8000079602939DF83750002419E698F8002035
:101A90002A2A08F1010700F0E982A2F130010929A0
:101AA000B8464FF000043FF62DAD18F8012B04EBBB
:101AB000840401EB4404A2F130010929F5D921E5A0
:101AC00043F0200398F800201AE50896002840F01B
:101AD000DB82002A00F0E78001218DF848204FF0DA
:101AE000000201918DF8372005910DF1480B7BE73D
:101AF000079A136804320792039A1A60CBE40FAA7C
:101B000004992046FFF74AFC002840F039811099DB
:101B1000119A01F1010CCE46FFE51099119A481C6B
:101B20009DF83750002D3FF422AE01320DF13705FC
:101B30000121072811921090CAF80050CAF8041029
:101B400040F30881002A40F0BC81099B002B3FF440
:101B50001FAE0EAB022208461C931D92CA460146D8
:101B60000AF1080A01300A9B802B3FF419AE059B4D
:101B7000E41A002C2EDD102CB34D1EDDD6461026A7
:101B8000069FDDF810A006E0881C0EF1080E19462D
:101B9000103C102C10DD4B1C1032072B11928EE8DC
:101BA00060001093F0DD002A65D1103C102C4FF03E
:101BB00001001146CE46EEDCF2462244072811927F
:101BC000CAF80050CAF80440109000F385800AF16A
:101BD000080A01300599CAF800B00A440728119292
:101BE000CAF80410109040F38280002A40F0188157
:101BF000029B1092580735D5089B01995C1A002C5E
:101C000040F3E780CA46102C40F3188210998F4E9B
:101C1000069FDDF810B0102506E0881C0AF1080ABE
:101C20001946103C102C11DD4B1C1032072B119261
:101C3000CAF80060CAF804501093EEDD42BB103CB5
:101C4000102C4FF001001146CA46EDDC2244072853
:101C50001192CAF80060CAF80440109051DD002AC1
:101C600040F09B81039B089A01998A42ACBF9B1864
:101C70005B1803934EE00FAA51463846FFF78EFBE0
:101C8000002840F03F811099119A481CCE467FE70A
:101C90000FAA59463846FFF781FB60B91099119A8F
:101CA000481CCA46BDE7119BDDF810B0002B40F080
:101CB000D48100231093DBF8643013F0010FBBF8DC
:101CC0000C3002D19A0540F1DE805B063FF5B2ACE4
:101CD00003982DB0BDE8F08F002A40F00681059AE8
:101CE0001D9201231192CDF870B01093CA460AF1EB
:101CF000080A029B590704D5089B01995C1A002C1D
:101D000081DC039B089901988142ACBF5B181B18CA
:101D1000039372BB00231093CA46FFF7BCBB0FAA04
:101D200004992046FFF73AFB50BB1099119A01F134
:101D3000010ECC4648E5002A40F040819DF837105E
:101D4000002900F01B8101220DF1370110461D9280
:101D50001C91CA4601460AF1080A013007E5029BB8
:101D6000012A00F09880022A0DD102930026002754
:101D7000B0E50FAA04990698FFF710FB0028C9D018
:101D8000DDF810B097E7029300260027494600E0EF
:101D90005946F20842EA4772F80806F00703074678
:101DA0001646303356EA070201F8013C01F1FF3BC9
:101DB000EED1029AD6077FF59DAD302B3FF49AAD58
:101DC000023930230BF8013CA9EB010305938B4644
:101DD00076E4039B089A8A42ACBF9B185B18039376
:101DE00098E702224DE4002F08BF0A2E52D3CB46BB
:101DF000304639460A22002303F078FA30320BF8D5
:101E0000012D3046394600230A2203F06FFA0646B8
:101E10000F4656EA0703EBD16CE50594CB464FE439
:101E20000FAA04990698FFF7B9FA0028A8D1119AC9
:101E3000CA465EE70FAA04990698FFF7AFFA002892
:101E40009ED1CA46FFF7C0BBC0564000B056400006
:101E50000431166807910122002712E40798014611
:101E600004310668079100270BE40E6804310791DE
:101E7000002791E507990E680A46F7170432079282
:101E8000304639460FE5DBF8580001F0C3FCBBF8DB
:101E90000C301AE7029B02930DF1B00B3036012390
:101EA0000BF8416D05930BE40FAA04990698FFF710
:101EB00075FA00287FF464AF1099119A481CCA463D
:101EC00051E60FAA04990698FFF768FA00287FF4F4
:101ED00057AF1099119A481CCA4648E4002A40F0AE
:101EE000918001201146CA4641E60FAA049906983E
:101EF000FFF754FA00287FF443AF1098119A01308D
:101F0000CA4667E6D346D6E6079E073626F007029E
:101F100002F10801D2E9006707910122FFF7B1BB86
:101F2000079E073626F00706D6E9000106F10802EB
:101F3000079206460F46B6E4079E073626F00702CC
:101F400002F10801D2E9006707910022FFF799BB6F
:101F5000079E073626F0070101F108000790D1E936
:101F6000006719E5CB46FFF7ABBB2D25764267EB43
:101F700047078DF837500122FFF788BB099BB3B99B
:101F800011460120CA46F2E5DBF8580001F042FC98
:101F90004FF0FF330393FFF750BB0FAA0499069845
:101FA000FFF7FCF900287FF4EBAE119AA9E60EAB1F
:101FB00002221C931D920120CA46D0E50FAA049963
:101FC0000698FFF7EBF900287FF4DAAE1099119A22
:101FD000481CCA46A4E5079A03991368CD1708461A
:101FE000043229460792C3E90001FFF754BA584664
:101FF00007960293FFF764F9002405909DF8375087
:10200000FFF75EBB0FAA04990698FFF7C7F90028EF
:102010007FF4B6AE1099119A481CCA46A7E51099EC
:10202000119A204E0131FFF790BB062C28BF0624E1
:10203000059407960194DFF870B0D5E41098194E16
:10204000013003E605949DF8375007960293044645
:10205000FFF736BB8646FFF7CEBB06980FAA594658
:10206000FFF79CF900283FF424AE24E6079998F87E
:1020700001200C68043144EAE474B8460791FFF784
:102080003FBA8DF837503CE48DF8375021E58DF894
:102090003750FFF7F4BB8DF8375091E48DF8375087
:1020A00069E400BFB0564000A85640002DE9F04159
:1020B0000C46ADF58D6D8989666EE589199621F01E
:1020C00002010646E069ADF80C1017464FF4806136
:1020D000626AADF80E5098461AAD0023079016A814
:1020E00009920693009504950291059101F08CFBED
:1020F00043463A4669463046FFF790F9051E07DB2E
:102100003046694600F032FE002818BF4FF0FF3518
:10211000BDF80C305B0603D5A38943F04003A381CF
:10212000169801F073FB28460DF58D6DBDE8F08122
:102130002DE9F04F8B46D9B0496E0693BBF90C30B0
:1021400011F0010F074699B202D18C0540F1E583E9
:10215000880409D4DBF8641043F4005321F40051DF
:10216000ABF80C30CBF864101446264600230793D6
:1021700004939A46059316F8013B0B9363B301F061
:1021800035FB0B9B1844457815F0080533D0DBF878
:10219000042012E001F02AFBDBF800301A7810442A
:1021A00001334278110710D5DBF80420CBF800305A
:1021B000013A0AF1010ACBF80420002AEADC594668
:1021C000384602F0A7F90028E4D03446264616F82F
:1021D000013B0B93002BD2D1DBF86430DA0700F11E
:1021E000A781BBF80C309B0500F1A281DBF85800F9
:1021F00001F010FB9CE1252B40F0848094F80180D5
:102200002C46731CB8F1780F00F29681DFE818F0C5
:102210008401940194019401940194019401940126
:102220009401940194019401940194019401940106
:1022300094019401940194019401940194019401F6
:1022400094019401940194019401940194019401E6
:1022500094019401940194019401790094019401F2
:10226000940194017E0194019401940194019401DC
:1022700075017501750175017501750175017501AE
:1022800075017501940194019401940194019401E4
:1022900094019401940194017101940194019401B9
:1022A00094019401940194016B0194019401310112
:1022B0009401940194019401940194019401940176
:1022C0002801940194011F01940194019401940147
:1022D0009401940194011A0108019401940194015C
:1022E0000201930094019401610194014A014801A3
:1022F000440194019401410194013A019401940133
:1023000028011E46DBF80430002B40F39283DBF8F3
:10231000003016F8012C197891427FF45DAFDBF89C
:1023200004200133013ACBF800300AF1010ACBF85E
:10233000042034464AE70393B24B079300230493E7
:102340000326DBF80430002B75DD690633D5022E39
:1023500000F00D82032E00F05981012E00F0208143
:10236000002C08BF012415F0010340F05D82ED064A
:1023700040F10B831D4609E01344CBF800301544AF
:10238000A41A02F0C7F8002840F0FB82DBF8042012
:10239000DBF80030A24259463846EDDB121B2344DD
:1023A000CBF804202544CBF80030039EAA443446E1
:1023B0000CE7CBF8003001F019FADBF800301A789E
:1023C0001044013342781207C1D5DBF80420013AEA
:1023D000002A0AF1010ACBF80420EADC5946384603
:1023E00002F098F80028E6D0DBF86430DC0704D46B
:1023F000BBF80C30980540F1B082059B002B00F033
:102400009480BBF80C30590600F18F80059859B0C4
:10241000BDE8F08F96F8018045F004051E46F0E611
:102420000393784B07930A230493DBF80430002BC3
:102430004FF0030689DC5946384602F06BF8002855
:1024400083D0D1E7039345F04005002679E719468C
:1024500018A802F0FBF845F040050390012670E74C
:10246000039345F40075684B0793102304930326E8
:1024700067E7039345F00105634B07930823049333
:1024800003265EE70393604B07930A230493032616
:1024900057E70393022654E7039345F40875E2E7F0
:1024A0000393E9E7EA06039377D46B0700F1EC8224
:1024B000EE0700F1D882AD0740F1D582069A039E5F
:1024C00013685046C11704320692C3E9000134462E
:1024D0007CE696F80180B8F16C0F00F0B28245F00E
:1024E00001051E468DE696F8018045F002051E4660
:1024F00087E6039345F0010593E704EB840408EBBA
:102500004404303C96F801801E467AE696F8018035
:1025100045F010051E4674E6DBF86430DC0704D491
:10252000BBF80C30980540F193824FF0FF330593D0
:10253000059859B0BDE8F08F039301F057F9404476
:10254000437803F00303012B7FF46BAF45F00105E3
:1025500067E70CAB1846082200210893FEF780FDC0
:1025600015F01003099300F0EB810DF12C09002602
:102570000DF1380801F03AF9DBF800301B7803441C
:102580005B781A0702D4002C40F08982099B23B99A
:10259000C9F80030059B01330593039E344615E6C8
:1025A000002C08BF4FF0FF34E80640F10B81DBF848
:1025B000002000250DF16008137818F8033001326F
:1025C000DBB1DBF80430CBF800200135013BAC4235
:1025D000CBF804303FF4E9AE002BEDDC5946384629
:1025E00001F098FF00287FF4E0AEDBF800201378BC
:1025F00018F803300132002BE3D1002D7FF4D5AE63
:10260000EAE500BF714840009D4B4000631E262B49
:102610008CBFA4F1270200224FF0000911460EAE34
:102620004B46B946049F524688BF272445F4586557
:10263000B0468A46DBF8000090F800E0AEF12B01CE
:102640004D2942D8DFE801F08E418E414169636334
:1026500063636363635D5D4141414141414158585A
:1026600058585858414141414141414141414141FE
:102670004141414141274141414141414141585836
:1026800058585858414141414141414141414141DE
:1026900041414141412705F4C061B1F5007F14D1AA
:1026A00025F4007545F4A0651027DBF8041088F8C0
:1026B00000E00139002908F10108CBF8041046DDDB
:1026C0000130CBF80000013CB4D1E90504979246F3
:1026D0004F46994605D5B04500F2A281B0453FF47A
:1026E0007BAD15F0100400F0E580A8EB0606B144C0
:1026F000039ECA44344669E50A2FE6DD25F43865B1
:10270000D3E7AC4931F91770082FF7DCDDE7A949A9
:1027100025F4386531F91770C7E72905C5D517B90C
:1027200045F400750827690500F1EB8025F4607514
:10273000BAF1000F02D00AF1FF3A0134DBF80410BD
:102740000139002903F10103CBF80410B8DC594624
:1027500048460893049201F0DDFE049A089B002885
:10276000B1D0B2E72906B0D525F080059DE7002C51
:1027700008BF4FF0FF3415F001067FF4EAAEEB0618
:1027800040F11C8101F032F8DBF800301A78104477
:1027900001334278150711D4DBF80420CBF8003060
:1027A0000136013AB442CBF8042007D0002AE9DC14
:1027B0005946384601F0AEFE0028E3D0B244039EED
:1027C000344603E5069A1568161DA9460DF1600802
:1027D000DBF800301A7818F80220591CC2B1DBF877
:1027E0000420CBF80010013ACBF804201B7809F83C
:1027F000013B013C0CD0DBF80430002BE8DC5946EF
:10280000384601F087FE0028E2D04D453FF4ECAD9C
:10281000B9EB05053FF4E0AC059A069600230132BA
:10282000059289F80030C0E50CAB1846082200215B
:102830000893FEF715FC15F01003099377D04FF0BD
:102840000009002C3FF4A9AE00250DF1380800F076
:10285000BBFFA8423FF4C8AD9BE80C0012F8010B87
:10286000CBF80020013B089A00926E1CCBF8043094
:1028700008F80500334642464946384601F0FCFA5E
:10288000431C3FF4B1AD00286CD1099B002B6DD1E6
:10289000C9F80030B244013C09F104090025DBF815
:1028A0000430002B30DD002CD1D1099B002B7FF4AC
:1028B00074AE6FE6224688F80040049B079C3146C0
:1028C0003846A047AA0642D46B0700F1D78015F01E
:1028D00001023CD1AD073AD5079B1946364B9942C8
:1028E0003846049B314600F01E8102F0A1F8069A9A
:1028F0001368C3E9000104320692059B0133059376
:10290000F3E625F4B065D0E65946384601F002FEFC
:102910000028C8D0002DC8D066E5DBF85800039227
:1029200000F076FFBBF90C30039A99B210E4069AD6
:1029300013460433D2F800900693002C84D129E684
:10294000069A13460433D2F8009006930FE6069ACF
:102950001368043206921860CFE7DBF8580000F0E5
:1029600059FF4AE5023005D1354698E7B244013CAB
:10297000054694E7099BB244013C002B8CD000250E
:102980008DE7002D7FF411AD2EE5069D23462968C5
:10299000CDF800B00122384600F028FB2E1D00289B
:1029A0003FF422AD059B0696039E013382440593B6
:1029B00034460BE4D05640009D4B4000069A166802
:1029C00002F10408354600F011FFDBF8002013780F
:1029D0001844511C4378180715D4DBF80430CBF8A1
:1029E0000010013BCBF80430137805F8013B013CA3
:1029F00009D0DBF80430002BE5DC5946384601F0FD
:102A000089FD0028DFD0AE1B059ACDF81880B244AE
:102A1000039E0023013205922B703446FFF7D6BB8C
:102A200018F8011C5A46384602F0F6F908F1FF384A
:102A300054E65946384601F06DFD00283FF467AC76
:102A4000D2E496F8028045F002050236FFF7D9BBC2
:102A5000DBF8580000F0DEFE4FF0FF3305930598D9
:102A600059B0BDE8F08F069A039E1368C3F800A022
:102A70001346043306933446FFF7A8BB069A13683F
:102A800004320692188038E7069A039E1368A3F86A
:102A900000A01346043306933446FFF797BB00F0BB
:102AA00093FE86423FF4A0AC9BE80C0012F8010BA9
:102AB000CBF80020013B089A0092751CCBF804303B
:102AC000494608F806002B464246384601F0D4F93C
:102AD000411C3FF489AC98B1023008BF2E462ED17C
:102AE000DBF80430002B3FF745AD5946384601F07E
:102AF00011FD00283FF43EAD002E7FF475AC45E596
:102B0000C9F8000000F052FE064678B1002D3FF4EF
:102B10003DAD454415F8011D5A46384602F07CF992
:102B20004545F7D132E502F029F9E0E6099BAA44D0
:102B3000013C002BD4D109F104091E46D0E7D9F895
:102B40000000DFE738B5304B1B6805460C4613B173
:102B50009A6B002A38D0B4F90C2093B218070CD520
:102B60002069A8B113F001021ED0636900225B4204
:102B7000A361A260F0B1002038BDD9063CD558074A
:102B800026D4206942F00803A3819BB20028E9D132
:102B900003F42072B2F5007FE4D02846214600F00D
:102BA00069FEA3892069DDE7990758BF6269A260C1
:102BB0000028E0D1B4F90C301A06DDD543F040030B
:102BC000A3814FF0FF3038BD184600F039F9C2E755
:102BD000216B51B104F14003994204D0284600F022
:102BE00037FBB4F90C2000232363002320696360C2
:102BF00022F024022060C5E742F0400209232B6046
:102C00004FF0FF30A28138BD18004020024B13B1B5
:102C1000024800F005B8704700000000B12E4000E7
:102C2000002301461A46184602F038BAB1F90C30B2
:102C30009AB22DE9F0410D46110780463AD46A68F0
:102C400043F40063002AAB816FDDAC6A002C49D0ED
:102C500000229BB2D8F80060C8F8002013F480521C
:102C600067D02A6D5F0705D569682B6B521A0BB1C7
:102C7000EB6BD21A0023E9694046A047441C3CD0C4
:102C8000B5F90C302A692A6023F400630022AB8175
:102C9000DB046A6047D4296BC8F8006011B305F102
:102CA0004003994202D0404600F0D2FA0020286347
:102CB000BDE8F0812E69AEB12C682E6091070CBF83
:102CC0006B690023A41BAB600AE0234632466F6A9F
:102CD000E9694046B8470028A4EB0004064404DD37
:102CE000002CF2DC0020BDE8F081AB8943F040030A
:102CF000AB814FF0FF30BDE8F081D8F800401D2CCB
:102D0000F3D8194BE340DB4313F00103EDD1B5F9E0
:102D10000C206B6022F400632969AB81DA0429601E
:102D2000B9D5002CB7D12865B5E7EA6B002A8CDC51
:102D3000D8E70123E9694046A047431C024602D078
:102D4000AB89AC6A8EE7D8F80030002BF8D01D2B89
:102D500001D0162B02D1C8F80060C3E7AB8943F05D
:102D60004003AB81BDE8F0810100402038B50D463D
:102D7000044608B1836BBBB1B5F90C0088B16B6E2A
:102D8000DB0701D4810517D520462946FFF74EFF02
:102D90006B6EDA07044602D4AB899B0507D5204643
:102DA00038BD0446204638BD00F04AF8E4E7A86D77
:102DB00000F030FD204638BDA86D00F029FDE3E7A6
:102DC00020B1054B01461868FFF7D0BF034B0449FB
:102DD000186800F0C1BC00BF180040207C564000BD
:102DE0006D2D4000014900F0B7BC00BF8551400087
:102DF00010B5002304468181C28103604360836073
:102E00004366036143618361194608225C30FEF723
:102E100027F907480749084A084B2062E4616162C4
:102E2000A262E36204F15800BDE8104000F0ECBC7F
:102E3000C1464000E5464000214740004147400070
:102E400010B50446124800F0E3FCA26BD2B904F5B9
:102E50003B731048C4F8E8320321C4F8E022E06371
:102E6000C4F8E41260680421FFF7C2FF01220921BF
:102E7000A068FFF7BDFF02221221E068FFF7B8FF4C
:102E80000123A3630248BDE8104000F0C3BC00BFAB
:102E9000E40A4020E52D4000014800F0B9BC00BF25
:102EA000F80A4020014800F0B5BC00BFF80A4020F5
:102EB00038B50A4C0A4D641BA4100AD004F18043B3
:102EC000013B05EB8305013C55F804399847002C7C
:102ED000F9D1BDE8384002F0A1BC00BF2C58400039
:102EE000285840002DE9F04782B0804689461446B4
:102EF00000F06AFC012836D04A4604F15C0301A9BF
:102F0000404602F07DF8421C064625D0A8B39DF845
:102F100004E000250DF1040A09E023685A1C226030
:102F200083F800E00135B54227D215F80AE0A3681E
:102F3000013B002BA360F0DAA769BB427146224631
:102F4000404602DBBEF10A0FE7D102F001F8431C54
:102F5000E8D102B0BDE8F087A38943F04003A38124
:102F600002B0BDE8F08709F1FF33FE2BC4D85FFA49
:102F700089FE06468DF804E0CBE7484602B0BDE87E
:102F8000F08700BF30B5536E13F0010FB2F90C306B
:102F9000144683B005469AB201D190051CD5900421
:102FA00006D4626E43F4005342F40052A381626679
:102FB00028462246FFF796FF636EDA07054602D4DD
:102FC000A3899B0502D5284603B030BDA06D00F053
:102FD00021FC284603B030BDA06D019100F018FC23
:102FE000B4F90C3001999AB2D9E700BF2DE9F04F3E
:102FF00085B002FB03F70E9C002F50D006460D460D
:103000000193029218B1836B002B00F0BE80636EB7
:1030100013F0010FB4F90C309AB202D1900540F1CF
:10302000B780910407D4626E43F4005322F4005138
:10303000A3819AB26166D4F80490B9F1000F49DB1C
:1030400092074B464CD4B046BA464E460EE0216835
:1030500000F0A6FF236833442360214640463544F0
:10306000AAEB060A01F056FA10BB6668B245324672
:103070002846ECD85246216800F092FF6268236827
:10308000A2EB0A02534462602360636EDA070AD43B
:10309000A3899B0507D4A06D00F0BCFB019F3846B7
:1030A00005B0BDE8F08F019F384605B0BDE8F08F50
:1030B000636ED80705D4A389990502D4A06D00F0EA
:1030C000A9FB029BA7EB0A07B7FBF3F7384605B04D
:1030D000BDE8F08F002192070B4661608946B2D5AA
:1030E000BB4228BF3B461A4621680393284600F09E
:1030F00057FF94E80500039B216B00EB0309D21AEC
:10310000C4F800906260A7EB030800294BD0B8F127
:10311000000FBAD004F14000814205D0304600F0E3
:1031200097F8D4F80090039B002121633A461D4490
:1031300033464F464646D4F810B0D4F814A098460B
:10314000914601E0002EA0D02561666125602146F0
:10315000404601F0DFF96368C4F810B0F61A1D4468
:103160000023C4F814A0276063600028EAD0636ECF
:10317000B046DE074F4602D4A3899D050FD5A7EBC5
:103180000807029BB7FBF3F789E7FFF759FE3EE715
:10319000A06D00F03DFBB4F90C309AB241E7A06D90
:1031A00000F038FBEBE7B8F1000FBFD16DE700BFCF
:1031B000F8B5244F0C46064600F0F0FFBB685D688A
:1031C000C4F57E610F3125F00305294421F47F61A8
:1031D00021F00F01A1F58054B4F5805F07DB0021D9
:1031E000304601F021FABB682B44984204D03046A7
:1031F00000F0DAFF0020F8BD6142304601F014FA19
:1032000001300DD0104BBA6819682D1B45F001052F
:103210003046091B5560196000F0C6FF0120F8BD5B
:103220000021304601F000FABA68831A0F2BDEDD68
:10323000064C0549246843F00103001B53600860F5
:10324000D5E700BFB80540208C0A4020C0094020C7
:10325000002944D02DE9F0410D46804600F09EFF44
:1032600055F8047C694927F00103A5F10804E21828
:103270008E685068B24220F003005ED0FE075060B6
:103280000BD455F8087CE41B01F1080EA5687545C0
:103290003B446DD0E768EF60BD6015186D68ED07C1
:1032A0003ED543F001026260E350B3F5007F17D2D0
:1032B000DB08581C9A104D6851F83070A760012344
:1032C000934001EBC0022B43083AE2604B6041F8A7
:1032D0003040FC604046BDE8F04100F065BF7047FB
:1032E0005A0A042A52D89A0902F13907FF0002F15A
:1032F0003805C819CA59083890424FD0516821F092
:1033000003018B4232D292689042F7D1C368A06029
:10331000E3609C60C4604046BDE8F04100F044BFFB
:1033200095683B4FBD42034440D0D068E86043F00D
:10333000010285606260E350B7E7FF07034407D4EA
:1033400055F8082CA41A1344A068E268C260906083
:10335000304A126843F00100934260608C60B9D338
:103360002D4B40461968FFF723FFB3E71046CDE722
:1033700011184968C90744D49168D268CA600344E7
:1033800043F0010091606060E350A3E7142A16D86F
:1033900002F15C07FF0002F15B05AAE7AA10012316
:1033A0004D6893402B434B600346B0E743F0010266
:1033B0004C610C61E560A5606260E3508AE7542AC5
:1033C00006D81A0B02F16F07FF0002F16E0590E7B5
:1033D000B2F5AA7F06D8DA0B02F17807FF0002F1F6
:1033E000770586E740F25450824206D89A0C02F1E3
:1033F0007D07FF0002F17C057BE74FF47E777E2599
:1034000077E743F001016160136063E7B80540208E
:10341000C0054020C4094020BC0A40209368002B0E
:1034200073D02DE9F04F8B8983B00C4619070090BB
:10343000164626D5226922B313F0020035682CD037
:103440004FF00009B04FC846B246B84543464A4619
:1034500028BF3B460098B8F1000F50D0E169666A7A
:10346000B047002858DDDAF808301B1A8144A8EB71
:103470000008CAF80830002BE7D1002003B0BDE8EF
:10348000F08F21460098FFF75DFB002840F0338164
:10349000A389356813F00200D2D113F0010945D198
:1034A0004F46019637B39A05D4F8088040F18380DF
:1034B0004745C346C0F0AB8013F4906F40F0AC803A
:1034C0002068BA465A46494600F004FEA2682368BE
:1034D000A2EB08025B44A2602360019A9368A3EB0D
:1034E0000A03D144A7EB0A079360002BC5D0A38938
:1034F000002FD8D1D5F800906F680835D2E7D5F8FD
:103500000090D5F8048008359FE7002070472146D9
:103510000098FFF72BFC70B3B4F90C3043F0400374
:103520004FF0FF30A38103B0BDE8F08F81463346F2
:103530004E46A8469A464D464EB380B3206823694E
:103540006269B145CB4628BFB34698425F4604D96D
:10355000A36813449B4500F3A68093454BDB1346B9
:10356000676AE16900982A46B847071ED4DDB9EBBF
:103570000709CCD00120DAF80830DB1B3D44F61BEC
:10358000CAF80830002B3FF478AF002ED5D108F1EF
:10359000080313E9600098460833002EF9D032463C
:1035A0000A21284600F0ACFC002800F0A180013080
:1035B000A0EB0509C2E720682369984202D8636935
:1035C0009F425DD2B84528BFB8464246494600F002
:1035D00081FDA3682268A3EB08034244A360226034
:1035E0000BB1C24679E721460098FFF7BFFB0028E0
:1035F00092D1C24671E75A46294600F06BFDA26897
:103600002368A2EB0B025B44A2602360AFE7206853
:10361000B846BA46BB4655E762692068216902EBA5
:103620004208A0EB010A08EBD8780AF101004FEA42
:10363000680838444045424684BF804642465B05A0
:1036400044D51146009800F067F98346002855D00C
:103650005246216900F0A4FCA38923F4906343F04F
:103660008003A3810BEB0A00A8EB0A03C4F810B097
:10367000C4F814802060A360B846BA46BB4621E770
:103680006FF00041B94228BF39464A4691FBF3F139
:103690000098666A03FB01F3E169B047B0F1000AE4
:1036A0003FF71BAF38E71A462946019300F012FD99
:1036B0002268019B00981A4422602146FFF756FBBE
:1036C000019B00287FF428AF1F4650E7009800F0C8
:1036D00071FD83460028C5D1009D21692846FFF76A
:1036E000B7FDB4F90C300C2223F080032A6015E7F3
:1036F00006F1010922E74FF0FF30BFE6009A0C23E4
:103700001360B4F90C3009E700FCFF7F2DE9F041AC
:1037100010F538771BD0884600267D68BC68013DCF
:103720000FD4A389012B05F1FF3506D9B4F90E306A
:103730000133204601D0C04706436B1C04F16804E6
:10374000EFD13F68002FE8D13046BDE8F0813E461A
:103750003046BDE8F08100BF2DE9F84310F5387719
:103760001FD0884606464FF000097D68BC68013DC1
:1037700011D4A389012B05F1FF3508D9B4F90E3016
:1037800001332146304602D0C04749EA00096B1C8C
:1037900004F16804EDD13F68002FE6D14846BDE84A
:1037A000F883B9464846BDE8F88300BFFF2801D931
:1037B0000020704710B5044600F018F82044407807
:1037C00000F0080010BD00BF044B054A1B685B6B8E
:1037D000002B08BF134693F82801704718004020BB
:1037E0004C044020D0F8EC00704700BF044B054A61
:1037F0001B685B6B002B08BF1346D3F8EC007047C7
:10380000180040204C044020704700BF704700BFA4
:10381000704700BF704700BF70B50C46B1F90E107D
:10382000002990B015461E4614DB01AA01F00CFDDC
:1038300000280FDB029A02F47042A2F50052B2FA9D
:1038400082F252094FF480634FF4006032602B60C3
:1038500010B070BDA289002312F08000336004D044
:10386000402218462A6010B070BD4FF480632B6070
:1038700010B070BD8A8992070B4606D501F143024C
:1038800001211A601A6159617047F0B583B001AB2C
:103890006A460C460646FFF7BFFF009905463046CC
:1038A00000F03AF8B4F90C30D8B1019A154F0099EC
:1038B000F76343F08003A3812060206161611AB93E
:1038C0002B43A38103B0F0BD3046B4F90E1001F0D4
:1038D000CFFCA0B1A38923F0030343F001031BB283
:1038E000EEE79A05EED423F0030304F1430243F01C
:1038F00002030121A381226022616161E2E7B4F940
:103900000C30DDE7E52D4000024B0146186800F061
:1039100003B800BF180040202DE9F04F01F10B065D
:10392000162E83B0054640F29E8036F0070600F161
:10393000BD80B14200F2BA8000F030FCB6F5FC7FE9
:10394000C0F09382730A00F0B880042B00F27981F2
:10395000B30903F1390003F1380EC300BF4F3B44F4
:10396000A3F108015C68A14206D10CE0002A80F2B4
:10397000AA80E468A14206D0636823F003039A1B7F
:103980000F2AF3DD70463C69DFF8E4E2744500F08D
:10399000AB81636823F003039A1B0F2A00F3908125
:1039A000002AC7F814E0C7F810E080F29D80B3F554
:1039B000007F80F06181DB0803F1010C99107A68C7
:1039C00057F83C80C4F8088001238B4007EBCC01FA
:1039D00013430839E1607B6047F83C40C8F80C406D
:1039E0008210012494409C4200F28B801C4206D13C
:1039F00020F0030064001C4200F10400FAD007EB41
:103A0000C009CC468046DCF80C309C4507D16DE1FE
:103A1000002A80F27B81DB689C4500F06781596851
:103A200021F003018A1B0F2AF2DDD3F80CC0D3F872
:103A3000088000939C19284646F0010642F00105D3
:103A40005E60C8F80CC0CCF808807C613C61C4F8AA
:103A50000CE0C4F808E065605A5000F0A5FB009B3C
:103A600003F108041EE0102920D800F097FB10266F
:103A700018230220794F3B44A3F108025C6894426A
:103A800000F03D816368E168A66823F003032344E6
:103A900028465A68F16042F001028E605A6000F0D8
:103AA00083FB0834204603B0BDE8F08F00240C23CC
:103AB00020462B6003B0BDE8F08F40204FF4007328
:103AC0004FF03F0E4AE72344E1685A68A66842F087
:103AD0000102F16028468E605A6000F065FB0834F0
:103AE000204603B0BDE8F08F234428465A6842F0D0
:103AF00001025A6000F058FB0834204603B0BDE8CC
:103B0000F08FBC68636823F00308B04504D3A8EBCA
:103B100006030F2B00F38580DFF85891504BD9F83E
:103B200000201B680132334404EB080A00F0558181
:103B300003F580530F3323F47F6B2BF00F0B5946A3
:103B4000284600F071FD411C024600F0FC808245D1
:103B500000F2F780434B19685944196000F04D8119
:103B6000D9F8000001301BBFA2EB0A0A5144C9F882
:103B70000020196012F0070100F01581C1F1080062
:103B8000C1F580510244083102EB0B09C9F30B095E
:103B9000A1EB0909494628460193009200F044FD33
:103BA000431C9DE80C0000F04381801A484440F01B
:103BB00001001968BA604944BC425060196017D0CE
:103BC000B8F10F0F40F2FB806068A8F10C0222F000
:103BD000070204EB020E00F001004FF0050C104349
:103BE0000F2A6060CEF804C0CEF808C000F217813A
:103BF0001D4BBC681A68914288BF19601B4B1A683C
:103C00009142626888BF196022F003029642A2EBDB
:103C1000060301D80F2B04DC284600F0C5FA002467
:103C200040E7A21943F0010346F00106666028460A
:103C3000BA60536000F0B8FA0834204603B0BDE81B
:103C4000F08F142B71D9542B00F2A380330B03F1A6
:103C50006F0003F16E0EC30080E600BFB805402080
:103C6000BC0A40208C0A4020B40A4020B80A4020F8
:103C7000C0054020C00940205A0A042A5BD9142AF2
:103C800000F2AE8002F15C01C9005B3207EB010C6F
:103C90007958ACF1080C8C4500F088804A6822F015
:103CA0000302934273D289688C45F7D1DCF80C206B
:103CB0007B68E260C4F808C09460CCF80C408FE6E2
:103CC000A11946F0010C42F00106C4F804C02846D0
:103CD00079613961C1F80CE0C1F808E04E60E2504A
:103CE00000F062FA0834DDE67B6879E608F1010845
:103CF00018F0030F0CF1080C7FF485AE2DE0DC68A2
:103D0000A34208BF02303FF43EAEBBE619441C4656
:103D10004A68DB6854F8086F42F001024A6028469E
:103D2000F3609E6000F040FABCE603F15C0003F132
:103D30005B0EC30012E69A0902F13901C90038325C
:103D4000A4E7BC4254D0BC68626822F003025DE77D
:103D500059F80839994540F0868010F0030F00F1BA
:103D6000FF30F5D17B6823EA04037B6064009C424A
:103D70003FF6C7AE002C3FF4C4AE1C4240467FF471
:103D80003EAE64001C4200F10400FAD037E68C46D7
:103D90008CE7B3F5AA7F15D8F30B03F1780003F194
:103DA000770EC300DAE54FF48051EDE67B689210A0
:103DB000012101FA02F213437B60624679E7012395
:103DC000536029E740F25452934222D8B30C03F1D6
:103DD0007D0003F17C0EC300C0E503F1100BAEE6DD
:103DE000542A29D81A0B02F16F01C9006E324DE72F
:103DF000204B196859441960B2E6CAF30B00002839
:103E00007FF4AEAE08EB0B03BA6843F001035360D6
:103E1000EEE67F204FF47E734FF07E0E9EE504F1B8
:103E2000080128460093FFF713FA009B1968DFE6A4
:103E300001204FF00009BCE6B2F5AA7F05D8DA0BE5
:103E400002F17801C900773220E740F254518A42EA
:103E500005D89A0C02F17D01C9007C3216E74FF4B7
:103E60007E717E2212E77B6880E7F00806F1080386
:103E700000E600BF8C0A4020F0B583B00746089DDD
:103E800092B1114C114E2468646B0095002C08BF50
:103E90003446D4F8E440A047431C03D100228A23CF
:103EA0002A603B6003B0F0BD074B08491B685B6BA1
:103EB0000095002B08BF0B4614462146044AD3F850
:103EC000E4400123A047E7E7180040204C044020CD
:103ED0005456400082B049B15AB16BB113780B60AF
:103EE0001278101C18BF012002B0704701A9002AE7
:103EF000F3D1104602B070476FF00100F4E700BF45
:103F000001F0FF01102A2BDB10F0070F08D010F88A
:103F1000013B013A8B422DD010F0070F42B3F6D18E
:103F2000F0B441EA012141EA014122F007047FF0A7
:103F300000070023F0E80256083C85EA010586EAFE
:103F4000010685FA47F5A3FA87F586FA47F6A5FA3A
:103F500087F68EB9EED1F0BC01F0FF0102F0070246
:103F600032B110F8013B013A83EA010313B1F8D1F1
:103F70000020704701387047002D06BF35460338D2
:103F8000073815F0010F07D1013015F4807F02BF0B
:103F9000013015F4C03F0130F0BC0138704700BF5C
:103FA000844641EA000313F003036DD1403A41D344
:103FB00051F8043B40F8043B51F8043B40F8043B03
:103FC00051F8043B40F8043B51F8043B40F8043BF3
:103FD00051F8043B40F8043B51F8043B40F8043BE3
:103FE00051F8043B40F8043B51F8043B40F8043BD3
:103FF00051F8043B40F8043B51F8043B40F8043BC3
:1040000051F8043B40F8043B51F8043B40F8043BB2
:1040100051F8043B40F8043B51F8043B40F8043BA2
:1040200051F8043B40F8043B51F8043B40F8043B92
:10403000403ABDD2303211D351F8043B40F8043B32
:1040400051F8043B40F8043B51F8043B40F8043B72
:1040500051F8043B40F8043B103AEDD20C3205D342
:1040600051F8043B40F8043B043AF9D2043208D03A
:10407000D2071CBF11F8013B00F8013B01D30B88AC
:1040800003806046704700BF082A13D38B078DD08A
:1040900010F003038AD0C3F10403D21ADB071CBF5C
:1040A00011F8013B00F8013B80D331F8023B20F8C6
:1040B000023B7BE7043AD9D3013A11F8013B00F8FF
:1040C000013BF9D20B7803704B7843708B78837087
:1040D000604670478842F0B50DD98B1898420AD2D5
:1040E0008418002A51D0224613F8014D02F8014DE0
:1040F0009942F9D1F0BD0F2A48D941EA00039B0744
:1041000046D100F1100401F11003154653F8106C6C
:1041100044F8106C53F80C6C44F80C6C53F8086CB1
:1041200044F8086C103D53F8046C44F8046C0F2DEF
:1041300003F1100304F11004E8D8A2F1100323F0F6
:104140000F0302F00F0E1033BEF1030F19440344A6
:1041500021D91E1F0D467446043C55F8047B46F8D1
:10416000047F032CF8D8AEF1040424F003040434D3
:104170002144234402F0030262B1013B0A4411F8D6
:10418000014B03F8014F8A42F9D1F0BD0346F3E732
:104190000346F2E7F0BD7246EEE700BF0148FFF7C5
:1041A00037BB00BFE80A40200148FFF733BB00BF20
:1041B000E80A4020002900F095802DE9F04F0D46D7
:1041C000164683B0804606F10B07FFF7E7FF55F868
:1041D00004EC162F2EF00304A5F108093CD8102298
:1041E0001746BE423DD8944243DAC44B996809EB66
:1041F0000400884200F0B480436823F001010144C8
:104200004968C9074CD51EF0010F00F09B8031466C
:104210004046FFF781FB064600283AD055F8043C9B
:1042200023F001034B44A0F108029A4200F02181DF
:10423000221F242A00F20781132A00F2DB800346A2
:104240002A46116819605168596092689A60294637
:104250004046FEF7FDFF1CE027F00707002F3A4617
:10426000BFDA00260C233046C8F8003003B0BDE8A2
:10427000F08F2E46E31B0F2B1ED8D9F8043003F025
:10428000010323434C44C9F80430636843F001033D
:1042900063604046FFF788FF304603B0BDE8F08F0B
:1042A00023F00303E11891421FDBC36882682E46A6
:1042B000D3600C469A60DDE7D9F8042009EB0701CA
:1042C00002F001024C4443F001031743C9F80470A3
:1042D0004B60636843F00103083163604046FEF7BA
:1042E000B7FFD6E71146FFF717BB1EF0010F8ED1BF
:1042F00055F8081CA9EB010ADAF8041021F00301B3
:104300000B442344934225DBC26881685646CA6049
:104310009160DAF80C1056F8080F221F242AC160A9
:10432000886000F29480132A6FD92968CAF80810AF
:104330006968CAF80C101B2A00F2A28008350AF13D
:10434000100263E055F8083CA9EB030ADAF8041000
:1043500021F0030163189342FFF659AF5646D8E7A0
:10436000416821F0030BA34407F11000834556DA9E
:104370001EF0010F7FF44BAF55F8081CA9EB010AA2
:10438000DAF8041021F003018B445845E2DC56466C
:10439000DAF80C1056F8080F221F242AC160886032
:1043A00000F28F80132A40F28A802968CAF8081028
:1043B0006968CAF80C101B2A00F28A8008350AF1D5
:1043C00010022968116069685160A96891600AEB60
:1043D0000701ABEB070242F0010299604A60DAF88C
:1043E000043003F001031F434046CAF80470FFF78E
:1043F000DBFE51E72B6803606B6843601B2A2DD8F6
:1044000000F1080305F108021BE732462968116034
:1044100069685160A96891601C46D1462AE709EB9A
:104420000701ABEB070B4BF0010299604A6055F8AE
:10443000043C03F001031F43404645F8047CFFF7AA
:10444000B3FE2E4628E72946FFF744FEFFE629463D
:1044500030461C46D146FFF73DFE0BE7AB68836054
:10446000EB68C360242A17D000F1100305F1100295
:10447000E7E650F8043C23F003031C442E46F9E61B
:10448000A968CAF81010E968CAF81410242A0CD0D8
:1044900010350AF11802B9E72B6903616B694361B2
:1044A00005F1180200F11803CBE62A69CAF81820B2
:1044B0006A69CAF81C2018350AF12002A6E73246BC
:1044C0007FE7294630460193FFF704FE019B7EE714
:1044D000A968CAF81010E968CAF81410242A03D091
:1044E00010350AF118026CE72A69CAF818206A69BF
:1044F000CAF81C2018350AF1200262E7B8054020EE
:10450000838903F00903092B01D000207047FEF7CF
:1045100057BC00BFF8B50C46054610B1836B002BA5
:1045200045D0B4F90C309AB2970407D4626E43F4C4
:10453000005322F400526266A3819AB200219606CB
:10454000616031D4500722D5216B61B104F1400381
:10455000994202D02846FEF77BFEE36B63600020A1
:104560002063002B3FD12369002B4CD0B4F90C7091
:10457000BEB2B3071ED12269226028466369256A4C
:10458000E169A8470028606009DD0020F8BDD10678
:104590003ED512072AD443F00403A381E3E7A3899D
:1045A00019D143F02003A3814FF0FF30F8BDFEF78F
:1045B00047FCB6E71A4B1B4918680123A38106F094
:1045C0000906FFF7A3F8092EA781D4D12146284672
:1045D000FEF72CFBCFE7002243F04003A38162608B
:1045E0004FF0FF30F8BDA36B2360F8BD214628468D
:1045F000FEF7BCFB0028D7D1B4F90C30A060A06155
:1046000023F00803C7E721462846FFF733F9ADE753
:1046100043F0400309222A604FF0FF30A381F8BD28
:104620007C5640000145400038B5074C0023054644
:1046300008462360FCF79CFC431C00D038BD23686F
:10464000002BFBD02B6038BDFC0A402070B40C78E6
:104650005E2C2FD000224D1C1646431E00F1FF0198
:1046600003F8012F8B42FBD174B186F00102025591
:104670006E1C16F8013C2D2B31460DD05D2B04D05D
:1046800033B11C463546F2E7691E084670BC7047D8
:104690002946084670BC704769785D29F1D08C4284
:1046A000EFDC023503190134A14203F8012FFADCD3
:1046B0000236DEE701224C7816468D1CCDE700BF9E
:1046C00010B50C46B1F90E1000F0FAFD002803DB1E
:1046D000236D0344236510BDA38923F48053A38174
:1046E00010BD00BF2DE9F0411646B1F90C201F4660
:1046F000D3050C46054607D500220223B1F90E105A
:1047000000F0C8FDB4F90C20B4F90E1022F4805268
:10471000A2813B4632462846BDE8F04100F0A8BCE5
:1047200010B50C46B1F90E1000F0B4FDA389421C7F
:104730000EBF23F4805343F480532065A38110BD42
:10474000B1F90E1000F00CBD2DE9F84FDDF82890FE
:104750000F46804616461D468A4600E0A24654464D
:10476000484614F801BBFFF73DF85844427812F070
:104770000802F3D1BBF12D0F4FD0BBF12B0F04BFBB
:1047800094F800B00AF102041DB1102D56D0AC46C9
:1047900004E0BBF1300F60D00A25AC46002A0CBF04
:1047A0006FF000494FF000490021B9FBFCFE0846BC
:1047B0000CFB1E9A05E029D00CFB0030012114F8F7
:1047C00001BBABF13003092B05D9ABF14103192B28
:1047D0000BD8ABF137039D420FDDB1F1FF3FEED0B7
:1047E0008645E8D24FF0FF31E9E7ABF16103192BC1
:1047F00003D8ABF157039D42EFDC4B1C13D002B141
:10480000404246B1C1B93760BDE8F88F9A45D3DA66
:104810004FF0FF31D3E7BDE8F88F94F800B00122E4
:104820000AF10204B0E72223C8F80030EEB1671E97
:1048300048463760BDE8F88F8146F8E7BBF1300F96
:10484000A5D1237803F0DF03582BA0D14FF0100C33
:1048500094F801B065460234A0E7237803F0DF0343
:10486000582BF3D00825AC4698E74846BDE8F88FAA
:1048700030B5064C064D2468646B83B0002C08BF2D
:104880002C460094FFF760FF03B030BD18004020B5
:104890004C0440202DE9F04F85B01E460291039054
:1048A000009288460E9F00E0A8464546384615F817
:1048B000014BFEF797FF2044437813F00803F3D130
:1048C0002D2C00F081802B2C03BF2C78019308F154
:1048D0000205019366B1102E00F08880019BB0465E
:1048E0004FEAE6797BB94FF0FF3A6FF000470EE0F0
:1048F000302C00F08A804FF00A084FF000090A2699
:10490000019B002BEFD04FF0000A4FF000474246CA
:104910004B465046394600F0E9FC4B46934650461C
:104920004246394600F0E2FC4FF0000E0022002320
:104930000FE044D002FB09F408FB0344A2FB082368
:10494000234412EB0C0243EBEC734FF0010E15F80D
:10495000014BA4F1300CBCF1090F06D9A4F1410CB4
:10496000BCF1190F0DD8A4F1370C664512DDBEF16C
:10497000FF3FECD0994208BF9042DAD24FF0FF3EA1
:10498000E5E7A4F1610CBCF1190F03D8A4F1570CB1
:104990006645ECDCBEF1FF3F1CD0019911B15242DB
:1049A00063EB4303009929B1BEF1000F1BD1029DB7
:1049B00000990D601046194605B0BDE8F08FE3453B
:1049C000B8DA4FF0FF3EC2E701232C78019308F1DB
:1049D00002057FE7039A22231360009B2BB3524604
:1049E0003B46013DE4E792461F46F8E7302C17D1DD
:1049F0002B7803F0DF03582B12D16C784FF010089E
:104A00004FF00009023510267AE72B7803F0DF0318
:104A1000582BF2D04FF008084FF0000908266FE736
:104A20004FF010084FF000096AE752463B46C1E7D5
:104A300030B5064C064D2468646B83B0002C08BF6B
:104A40002C460094FFF726FF03B030BD180040202D
:104A50004C0440202DE9F84FDDF828900E4607461B
:104A6000154698468A4600E0A2465446484614F841
:104A700001BBFEF7B7FE5844407810F00800F3D1B0
:104A800059462D2959D02B2904BF21780AF1020457
:104A9000B8F1000F0CD0B8F1100F53D04FF0FF3C1D
:104AA000BCFBF8FC08FB0CFA6FEA0A0AC14608E0F6
:104AB000302958D04FF00A08DFF8DCC0C1464FF06B
:104AC000050A00239E4605E02AD009FB0E2E01238D
:104AD00014F8011BA1F13002092A05D9A1F1410204
:104AE000192A0AD8A1F1370290450EDD002B01DB0F
:104AF000E645E9D94FF0FF33EAE7A1F16102192A4F
:104B000003D8A1F157029045F0DC002B0DDB08B172
:104B1000CEF1000E0DB173B92E607046BDE8F88F6E
:104B20005245D2DD4FF0FF33D2E722233B604FF0F6
:104B3000FF3E002DF1D0661EEEE7217801200AF13C
:104B40000204A5E730291BD1237803F0DF03582B9B
:104B50001CD14FF010096178C8464FF00F0A02349B
:104B60006FF0704CADE7237803F0DF03582BF0D0E3
:104B70004FF00808C1464FF0070A6FF0604CA0E7FD
:104B80004FF00F0A6FF0704CC1469AE7C1466FF0C4
:104B9000704C4FF00F0A94E79999991930B5064C6B
:104BA000064D2468646B83B0002C08BF2C4600942B
:104BB000FFF750FF03B030BD180040204C044020E8
:104BC0002DE9F04F85B09346029103909A460F4627
:104BD0000E9E00E02F463D46304615F8014BFEF78D
:104BE00001FE2044437813F00803F3D12D2C00F08C
:104BF00089802B2C03BF2C780193BD1C0193BAF143
:104C0000000F19D0BAF1100F00F08180D0464FEAA2
:104C1000EA7942464B464FF0FF304FF0FF3100F04B
:104C200065FB424606460F464B464FF0FF304FF0BD
:104C3000FF3100F05BFB0BE0302C7DD04E4F0522A6
:104C40004FF099364FF00A084FF000094FF00A0A6A
:104C50004FF0000E0020002111E0B94208BFB04221
:104C60003FD000FB09F408FB0144A0FB08012144EC
:104C7000C01841EBE3714FF0010E15F8014BA4F1A0
:104C80003003092B05D9A4F14103192B0DD8A4F148
:104C900037039A4511DDBEF1000F03DB8F4208BFD9
:104CA0008642DAD24FF0FF3EE7E7A4F16103192B09
:104CB00003D8A4F157039A45EDDCBEF1000F15DBD4
:104CC000019B13B1404261EB4101BBF1000F05D0E4
:104CD000BEF1000F14D1029DCBF8005005B0BDE825
:104CE000F08F9342BDDD4FF0FF3EC6E7039A2223CB
:104CF00013604FF0FF304FF0FF31BBF1000FEDD0EC
:104D0000013DE9E701232C780193BD1C77E7302CA6
:104D100023D12B7803F0DF03582B28D16C780F2296
:104D200002354FF0FF366FF070474FF010084FF02C
:104D300000094FF0100A8BE72B7803F0DF03582BA4
:104D4000ECD007224FF0FF366FF060474FF00808B5
:104D50004FF000094FF0080A7AE70F224FF0FF36B4
:104D60006FF070474FF010084FF0000970E74FF0F8
:104D700010084FF000094CE79999991930B5064C85
:104D8000064D2468646B83B0002C08BF2C46009449
:104D9000FFF716FF03B030BD180040204C04402040
:104DA00001F140032DE9F0410C46096B994214D002
:104DB000666B77003A46FFF7FDF9054640B300EB16
:104DC0000608324640462946FFF7EAF8C4F8008054
:104DD000256367630020BDE8F0814FF48061FEF732
:104DE0009BFDA8B194F8423020634FF48062626367
:104DF00080F8FF3394F8413080F8FE3394F8403067
:104E000080F8FD3300F2FD3020600020BDE8F08125
:104E10004FF0FF30BDE8F08170B54C1C24D0064641
:104E200014460D4610B1836B002B4DD0636E13F00A
:104E3000010FB4F90C309AB201D1910559D5920401
:104E400005D4626E22F4005243F40053626623F0EC
:104E500020039AB25007A3811BD4D10608D4636EF5
:104E6000D80701D491053ED54FF0FF35284670BDD7
:104E700012070BD521463046FDF778FF00282CD1CC
:104E8000B4F90C30A060A06123F0080343F00403E0
:104E9000A381236BEDB2002B34D06268636B9A421E
:104EA00015DA23685A1E226003F8015C6368626E9B
:104EB0000133D0076360D9D4A3899B05D6D4A06DF4
:104EC000FEF7A8FC284670BDFDF7BAFFAEE73046F6
:104ED0002146FFF765FF0028E3D0636EDE07C3D4E9
:104EE000A3899D05C0D4A06DFEF794FC4FF0FF355B
:104EF000BCE7A06DFEF78CFCB4F90C309AB29204BA
:104F0000A5D49EE72269236872B19A420CD213F8A5
:104F1000012CAA4208D16268616E013B0132C907C7
:104F200023606260C8D5A1E7A36323466068E0639D
:104F3000032204F140016263216303F8425F626E61
:104F40002360D2074FF0010363608FD4B4E700BF42
:104F5000F8B50D461446064610B1836B002B4BD0B6
:104F6000B4F90C20A369A36091B2080739D523696D
:104F7000002B36D0EDB289042F4615D52268616921
:104F8000D31A8B421CDA0133A168501C0139A1608D
:104F90002060157062699A421AD0A389DB0701D597
:104FA0000A2D15D03846F8BD616E42F4005221F446
:104FB0000051A281226861666169D31A8B42E2DBEB
:104FC00021463046FDF7D2FE40B922680123DBE7D7
:104FD00021463046FDF7CAFE0028E3D04FF0FF37E8
:104FE000E0E721463046FDF7ADFD0028F6D1B4F9E3
:104FF0000C20236991B2BDE7FDF722FFB0E700BFA7
:10500000F0B5064685B01F4689B1104C104D246896
:10501000646B002C08BF2C46D4F8E040A047431C2A
:1050200003D100228A233A60336005B0F0BD0C46FC
:105030000649074A0968496B002908BF11462246FC
:10504000D1F8E04001A9A047E9E700BF18004020DF
:105050004C04402021B1FF2A04D80A700120704777
:10506000084670478A2303604FF0FF30704700BF47
:1050700070B50D46084C114606461A4628460023D0
:105080002360FBF7FBFA431C00D070BD2368002BA4
:10509000FBD0336070BD00BFFC0A40202DE9F8430F
:1050A0002C4D0646286898460F469146FEF7B0FB01
:1050B000294B1C68D4F84831002B3ED05A681F2A6F
:1050C0001CDC02F1010E76B103EB82010124C1F870
:1050D0008890D3F8880194402043022EC3F88801B9
:1050E000C1F8088123D00232C3F804E0286843F8ED
:1050F0002270FEF78FFB0020BDE8F883174B0BB33F
:105100004FF4C870FEF700FC0346D8B1D4F848212C
:105110000260002141600A46C4F848014FF0010EC8
:10512000C0F88811C0F88C11002EDCD0CCE7D3F881
:105130008C110C43C3F88C41D5E704F5A673C4F871
:105140004831BBE72868FEF765FB4FF0FF30BDE84C
:10515000F88300BF480440207C56400009394000D5
:1051600038B5074C0023054608462360FBF71CFFB3
:10517000431C00D038BD2368002BFBD02B6038BD0A
:10518000FC0A402070B559B105460C4610B1836B3E
:10519000002B3CD0636ED80705D5B4F90C302BB981
:1051A0000026304670BDA38999053CD52146284686
:1051B000FDF73CFDE36A064633B1E16928469847AE
:1051C0000028B8BF4FF0FF36A3891A0622D4216BFE
:1051D00041B104F14003994202D02846FEF738F865
:1051E00000232363616C21B12846FEF731F80023C8
:1051F0006364FDF751FE636E0022DB07A2810ED5CA
:10520000A06DFEF703FBFDF74DFE304670BDFDF7C8
:1052100017FEBFE721692846FEF71AF8D7E7A06D09
:10522000FEF7F8FAECE7A06DFEF7F2FAB4F90C30ED
:10523000002BBBD1666E16F00106B1D1A06DFEF752
:10524000E9FA304670BD00BF38B50B46074C05463D
:105250001146184600232360FBF7A9FE431C00D02B
:1052600038BD2368002BFBD02B6038BDFC0A4020E2
:1052700038B5074C0023054608462360FBF79CFE23
:10528000431C00D038BD2368002BFBD02B6038BDF9
:10529000FC0A402070B50D46084C114606461A46D9
:1052A000284600232360FBF789FE431C00D070BD15
:1052B0002368002BFBD0336070BD00BFFC0A402088
:1052C00070B50D46084C114606461A46284600237E
:1052D0002360FBF7B5F9431C00D070BD2368002B99
:1052E000FBD0336070BD00BFFC0A402053B94AB9FF
:1052F000002908BF00281CBF4FF0FF314FF0FF30DE
:1053000000F07AB9ADF1080C6DE904CE00F006F8B2
:10531000DDF804E0DDE9022304B070472DE9F04731
:105320008C460D460446089E002B51D18A421746F2
:105330006DD9B2FA82FEBEF1000F0BD0CEF1200C77
:1053400001FA0EF520FA0CFC02FA0EF74CEA050CF5
:1053500000FA0EF44FEA174A250CBCFBFAF81FFAC4
:1053600087F90AFB18CC45EA0C4508FB09F3AB4268
:105370000AD9ED1908F1FF3280F02381AB4240F2E7
:105380002081A8F102083D44ED1AA4B2B5FBFAF061
:105390000AFB105544EA054400FB09F9A14509D967
:1053A000E41900F1FF3380F00A81A14540F2078142
:1053B00002383C44A4EB090440EA08400021002ED6
:1053C00061D024FA0EF4002334607360BDE8F087E6
:1053D0008B4207D9002E54D0002186E821000846D0
:1053E000BDE8F087B3FA83F1002940F08E80AB422C
:1053F00002D3824200F2FA80841A65EB0305012091
:10540000AC46002E3FD086E81010BDE8F08712B9F8
:105410000127B7FBF2F7B7FA87FEBEF1000F34D1D0
:10542000EB1B3A0C1FFA87FC0121B3FBF2F8250CA9
:1054300002FB183345EA03450CFB08F3AB4207D9DE
:10544000ED1908F1FF3002D2AB4200F2D180804664
:10545000ED1AA3B2B5FBF2F002FB105543EA054486
:105460000CFB00FCA44507D9E41900F1FF3302D27C
:10547000A44500F2B8801846A4EB0C0440EA0840AA
:105480009DE731463046BDE8F087CEF1200405FAAD
:105490000EF307FA0EF720FA04F83A0C25FA04F492
:1054A00048EA0308B4FBF2F14FEA184502FB114445
:1054B0001FFA87FC45EA044501FB0CF3AB4200FAF6
:1054C0000EF409D9ED1901F1FF3080F08A80AB426A
:1054D00040F2878002393D44EB1A1FFA88F5B3FB8E
:1054E000F2F002FB103345EA034500FB0CF3AB423C
:1054F00007D9ED1900F1FF386FD2AB426DD90238F0
:105500003D44EB1A40EA01418FE7C1F1200722FA3E
:1055100007F88B4005FA01F448EA030320FA07FE76
:105520004FEA134CFD404EEA040EB5FBFCF94FEA7E
:105530001E440CFB19551FFA83F844EA054509FB84
:1055400008F4AC4202FA01F200FA01FA08D9ED18A7
:1055500009F1FF3043D2AC4241D9A9F102091D44FF
:105560002D1B1FFA8EFEB5FBFCF00CFB10554EEA0E
:10557000054400FB08F8A04507D9E41800F1FF3501
:1055800029D2A04527D902381C4440EA0940A4EB9F
:105590000804A0FB02894C45C6464D4615D312D0DF
:1055A00056B1BAEB0E0364EB050404FA07F7CB40DF
:1055B0001F43CC40376074600021BDE8F087184677
:1055C000F8E69046E0E6C245EAD2B8EB020E69EB97
:1055D00003050138E4E72846D7E7404691E78146CE
:1055E000BEE7014678E702383C4445E7084608E74D
:1055F000A8F102083D442BE7704700BF456E746573
:1056000072207465787420746F20656E637279708F
:105610007420283136206368617261637465727327
:10562000206D6178293A2000253136730000000092
:10563000596F7520656E74657265643A2025730A2A
:1056400000000000456E63727970746564206461C7
:1056500074613A0A000000004465637279707465F1
:105660006420746578743A2025730A0025303278F6
:10567000000000000A000000200000002000402080
:105680003031323334353637383941424344454678
:10569000000000003031323334353637383961623A
:1056A0006364656600000000286E756C6C2900005C
:1056B00020202020202020202020202020202020EA
:1056C00030303030303030303030303030303030DA
:1056D0000A000100020003000400050006000700A4
:1056E000080009000A000B000C000D000E000F005E
:1056F0001000000043000000504F534958000000C4
:105700002E000000002020202020202020202828FB
:105710002828282020202020202020202020202071
:1057200020202020208810101010101010101010B1
:1057300010101010100404040404040404040410E1
:10574000101010101010414141414141010101016F
:105750000101010101010101010101010101010139
:105760001010101010104242424242420202020245
:105770000202020202020202020202020202020209
:1057800010101010200000000000000000000000B9
:105790000000000000000000000000000000000009
:1057A00000000000000000000000000000000000F9
:1057B00000000000000000000000000000000000E9
:1057C00000000000000000000000000000000000D9
:1057D00000000000000000000000000000000000C9
:1057E00000000000000000000000000000000000B9
:1057F00000000000000000000000000000000000A9
:105800000000000000000000F8B500BFF8BC08BCB4
:105810009E4670470D2C40008D014000F8B500BF3A
:0C582000F8BC08BC9E46704769014000BF
:08582C00F0FAFF7F010000000B
:1058340016157E2BA6D2AE288815F7AB3C4FCF09A0
:105844000100000000093D0020004020000000008D
:10585400000000000C03402074034020DC034020BF
:105864000000000000000000000000000000000034
:105874000000000000000000000000000000000024
:105884000000000000000000000000000000000014
:105894000000000000000000000000000000000004
:1058A40000000000000000000000000000000000F4
:1058B40000000000000000000000000000000000E4
:1058C40000000000000000000000000000000000D4
:1058D40000000000000000000000000000000000C4
:1058E40000000000000000000000000000000000B4
:1058F40000000000000000000100000000000000A3
:105904000E33CDAB34126DE6ECDE05000B00000067
:105914000000000000000000000000000000000083
:105924000000000000000000000000000000000073
:105934000000000000000000000000000000000063
:105944000000000000000000000000000000000053
:105C74000000000000000000D80A4020430000009B
:105C84000000000000000000000000000000000010
:105C940000000000000000000000000043000000BD
:105CA40000000000000000000000000000000000F0
:105CB400000000000000000000000000430000009D
:105CC40000000000000000000000000000000000D0
:105CD400000000000000000000000000430000007D
:105CE40000000000000000000000000000000000B0
:105CF400000000000000000000000000430000005D
:105D0400000000000000000000000000000000008F
:105D1400000000000000000000000000430000003C
:105D2400000000000000000000000000000000006F
:105D3400000000000000000000000000430000001C
:105D4400000000000000000000000000000000004F
:105D5400000000000000000000000000555040005A
:105D6400D53E4000000000000457400000574000AA
:105D74005456400054564000545640005456400077
:105D84005456400054564000545640005456400067
:105D940054564000FFFFFFFFFFFFFFFFFFFFFFFF21
:105DA400FFFF000001004153434949000000000087
:105DB40000000000000000000000000000000000DF
:105DC4000000000000004153434949000000000066
:105DD40000000000000000000000000000000000BF
:105DE40000000000000000000000000000000000AF
